:020000040800F2
:1000000000500020C9020008690200086B020008C5
:100010006D0200086F020008710200080000000075
:100020000000000000000000000000007302000853
:10003000750200080000000077020008790200083D
:100040001103000811030008110300081103000840
:100050001103000811030008110300081103000830
:100060001103000811030008110300081103000820
:100070001103000811030008110300081103000810
:100080001103000811030008110300081103000800
:1000900011030008110300081103000811030008F0
:1000A00011030008110300081103000811030008E0
:1000B00011030008110300081103000811030008D0
:1000C00011030008110300081103000811030008C0
:1000D00011030008110300081103000811030008B0
:1000E00011030008110300081103000800000000BC
:1000F0000000000000000000000000000000000000
:0C01000000000000000000005FF808F1A3
:10010C000348044B834202D0034B03B1184770479A
:10011C000000002000000020000000000548064BF5
:10012C001B1AD90F01EBA301491002D0034B03B1E9
:10013C00184770470000002000000020000000005D
:10014C0010B5064C237843B9FFF7DAFF044B13B113
:10015C000448AFF300800123237010BD0000002081
:10016C00000000005C03000808B5054B1BB10549F5
:10017C000548AFF30080BDE80840FFF7CFBF00BFD4
:10018C0000000000040000205C03000882B0019015
:10019C0000E000BF019B5A1E0192002BF9D102B066
:1001AC0070470000154B9A6942F004029A619A69F3
:1001BC0042F008029A61A3F582331A6822F4407265
:1001CC001A601A6842F400721A601A6822F44062CB
:1001DC001A604FF480221A61A3F580631A6822F02A
:1001EC0003021A601A6822F00C021A601A6842F0B4
:1001FC0008021A6001221A61704700BF0010024009
:10020C00024B986800F00100704700BF00080140E5
:10021C00014B04221A617047000C0140024B4FF451
:10022C0080221A61704700BF000C014000B583B0FA
:10023C00084B0193FFF7B6FF0748FFF7A7FF01E054
:10024C00FFF7E6FFFFF7DCFF0028F9D1FFF7E6FF29
:10025C00F8E700BFE0930400A0860100FEE7FEE78C
:10026C00FEE7FEE7FEE770477047704770470000F7
:10027C000F4B1A6842F001021A6059680D4A0A4085
:10028C005A601A6822F0847222F480321A601A685A
:10029C0022F480221A605A6822F4FE025A604FF44B
:1002AC001F029A60044B4FF000629A60704700BFC7
:1002BC00001002400000FFF800ED00E0002103E018
:1002CC000B4B5B58435004310A480B4B42189A4273
:1002DC00F6D30A4A02E0002342F8043B084B9A4248
:1002EC00F9D3FFF7C5FF00F00FF8FFF79FFF70473A
:1002FC007C0300080000002000000020000000200B
:10030C001C000020FEE7000070B500260C4C0D4BC5
:10031C001D1BB6EBA50F09D1002600F019F80A4CED
:10032C000A4B1D1BB6EBA50F05D170BD54F8043B51
:10033C0098470136EDE754F8043B98470136F1E74E
:10034C0074030008740300087403000878030008A1
:10035C00F8B500BFF8BC08BC9E467047F8B500BFA6
:08036C00F8BC08BC9E46704776
:040374007501000807
:040378004D0100082B
:04000005080002C924
:00000001FF
